:100000004AC08AC063C062C061C060C05FC05EC0D9
:100010005DC05CC05BC05AC059C058C057C056C014
:1000200055C054C053C000CDD914F13C28E5A16C93
:1000300078B5509D894409021200010100803209FF
:1000400004000000FF00000012010101FF00000891
:10005000030431C6050201020001040309041A0366
:100060006900320063002D00740069006E007900A1
:100070002D007500730062001A03540069006C00C3
:100080006C00200048006100720062006100750091
:100090006D000100FF8E11241FBECFE5D4E0DEBF4E
:1000A000CDBF10E0A0E6B0E0E4EEF8E002C00590BD
:1000B0000D92A636B107D9F720E0A6E6B0E001C060
:1000C0001D92A639B207E1F7D9D30AC499CFDC0152
:1000D0009FEF8FEF46E2F0E018C02D918227E82FC6
:1000E000EF70E40F3591E82FE295892F932F31704F
:1000F000E327EF709295392F9F70307E8327E40FAE
:10010000359193273170932783276A9532F780952D
:1001100090958D939D9308950F931F932F93DF9345
:10012000CF930FB70F93B199FECFB1990BC0B1998F
:1001300009C0B19907C0B19905C0B19903C000E4E5
:100140000ABFACC0C0917E00DD27C158DF4F0BE075
:1001500013E022E0B19BE9CF3F934F936F9366B3D7
:1001600030E803C066B3432B4993442763702627C6
:10017000215026B32370A9F137953C3FA0F56227A3
:10018000615066B3637037953C3F98F52627215040
:10019000379526B323703C3F90F562276150379521
:1001A0003C3F66B36370A0F52627215037953C3F4E
:1001B000C8F526B323706227615037953C3FB0F5F0
:1001C0000A9566B37AF063702627215037953C3F35
:1001D00088F526B323706227615037953C3F10F2B3
:1001E0002DC031C052C0612726B323703F774160D4
:1001F000C6CF3F77426066B363702127C7CF3F7792
:100200004460612726B32370622761503795C8CFB9
:100210003F7748602127316066B3637026272150FD
:100220003795C6CF3F7740616127C1CF3F774062A6
:100230002127C4CF3F7740646127C9CF3F7740680B
:10024000212700C08FCF30E43ABF0B500195C01B6F
:10025000D040288121FD2DC019811F774091950044
:10026000141799F4293691F400916F000023F1F0EE
:1002700040917D004423D1F440936F0040917B0076
:1002800040939500C0E7D0E02BC022272093660062
:100290006F914F913F910AB706FD45CF0F910FBF68
:1002A000CF91DF912F911F910F911895C0E6D0E06B
:1002B00016C0217059F320916600222339F3409132
:1002C0007D00442399F700937D0020937C000091EA
:1002D0007E004BE0401B40937E00C1E6D0E001E091
:1002E00028B32C7F216017B3136028BB17BB13E022
:1002F00030E830FF212728BB379547954C3FC0F5A4
:1003000030FF2127379528BB47954C3FA8F530FF94
:1003100021273795000028BB47954C3F78F530FFE3
:1003200021273795000028BB47954C3F48F530FF03
:100330002127699128BB379547954C3F18F530FF29
:100340002127379528BB47954C3F00F530FF2127E3
:100350003795479528BB4C3FD8F430FF2127379578
:10036000362F479528BB4C3FA8F40A9512F614C0C7
:100370002127442728BBC2CF2127C5CF2127CBCF98
:100380002127D1CF2127442728BBD7CF2127DACF58
:100390002127DFCF2127E5CF2C7F28BB6F914F91FD
:1003A0003F9100E40ABFDF91CF9117B3022F216084
:1003B00028BB1C7FDFBFDF912F91000017BB08BB5C
:1003C0001F910F91189585B7836085BF8BB78064A7
:1003D0008BBFA09AA19A789408951F93CF93DF932F
:1003E00060917D00662309F460C080917E00CCE0BE
:1003F000D0E0C81BD109C158DF4F81E080936A006B
:1004000080917C008D3209F093C01E818F81811113
:100410001FEF88818076A9F59981911106C0188215
:1004200082E08117A8F5182F33C0953029F49A81FE
:1004300090937B00A898F5CF9630C9F492E0909302
:100440006A009B81913009F463C0923009F464C062
:10045000933039F79A81992309F462C0913009F4F5
:1004600063C09230F1F68AE1CEE5D0E0DACF983081
:1004700019F481E08883D5CF9A3099F6188281E00B
:10048000D0CFCE01F5D08F3F61F683E080936A0034
:10049000D0936800C09367001093690083EC809349
:1004A000700010926F0010927D0080916F0081119A
:1004B00028C090916A00992321F18091700028E86A
:1004C000822780937000C0916900C930C8F5CC23A1
:1004D00061F09330B9F56C2F81E790E044D1C82FDB
:1004E000809169008C1B809369006C2F81E790E0FC
:1004F000EEDD83E08C0F80936F00C83010F4109213
:100500006A008AE0B09B41C0DF91CF911F910895AE
:1005100082E1C8E4D0E085CF82E1C6E3D0E081CFBC
:1005200084E0CAE5D0E07DCF8AE1C8E7D0E079CFAA
:10053000635021F0A998CE015AD1A99A10E0ACCF0E
:10054000C8E0C7CF4091670050916800A1E7B0E0D4
:10055000FA01913091F481918D938E2F841B8C1729
:10056000D0F32FEF2C0F30E02F5F3F4F240F351FBC
:100570003093680020936700B3CF849131968D93B8
:100580008E2F841B8C17C8F3ECCF815009F0BACFA3
:1005900010927B0010929500A89AB6CFE09162006D
:1005A000F09163003197F1F7882359F0BD98C59A0F
:1005B000B59BFECF80916400909165000197F1F7A3
:1005C0000895BD9AC598F6CFBC98C49A0895BC9A70
:1005D000C4980895FCDF81E0E1DFF6CF0F931F930D
:1005E000CF93DF93C7E0D0E0082F10E0C8010C2EB6
:1005F00002C0959587950A94E2F780FF16C0E4DF64
:1006000081E0CCDF80E0CADF219780F7DDDF81E089
:10061000C5DFC6B380E0C2DFC295C17081E08C2720
:10062000DF91CF911F910F910895D1DFE9CF1F93F3
:10063000CF93DF93182FC8DF80E0B0DFD8E0C0E0B1
:1006400081E0ACDFCC0FB499C16080E0A7DFD1506E
:10065000B9F7112359F0B8DF81E0A0DF80E09EDF19
:10066000B3DF8C2FDF91CF911F910895B0DFF4CFCE
:100670001F93CF93DF93EC0199819230A9F130F46D
:10068000992309F1913041F180E022C0933009F4BF
:1006900065C09830C8F71C81110F2A813B8120FD6D
:1006A000116090FF3BC093DF80E078DF812F96DF01
:1006B000811138C082E080936B0010926E0010921E
:1006C0006D0088DF40C08A8188838B81898382E0C6
:1006D000DF91CF911F91089544E050E062E970E00E
:1006E000CE01EED084E0F4CF8A819B81009799F00F
:1006F0009093650080936400809164009091650000
:1007000096958795009711F481E090E090936300AF
:1007100080936200B9CF81E090E0EACF55DF81E0BD
:100720003DDFC1CF81E080936B008E819F819093EC
:100730006E0080936D00298120936C0021FF03C01F
:10074000892B09F4BECF8A819B8180FF9DCF8E814A
:100750009F81892B09F498CF8FEFBACF80916B00DE
:10076000888381E0B5CFEF92FF920F931F93CF93D1
:100770008C01C62F462F50E080916B00813091F59F
:1007800080916D0090916E008417950708F4C82F32
:1007900078018E2D801B8C1790F080916C0081FF6A
:1007A00007C080916D0090916E00892B09F412DFD3
:1007B0008C2FCF911F910F91FF90EF900895209172
:1007C0006D0030916E002150310930936E002093FE
:1007D0006D0081E0232B09F080E029DFF701819390
:1007E0007F01D7CF70E060E0C80173D0E1CFEF9216
:1007F000FF921F93CF93DF93EC01162F462F50E00B
:1008000080916B00813059F580916D0090916E0060
:100810008417950708F4182F7E018E2D8C1B8117E5
:1008200080F080916C0081FF23C080916D009091D9
:100830006E00892BE9F4DF91CF911F91FF90EF902B
:10084000C9CE80916D0090916E00019790936E00DB
:1008500080936D00F70181917F01C0DEDECF70E0F3
:1008600060E0CE01DF91CF911F91FF90EF9031C0FA
:10087000DF91CF911F91FF90EF90089588E19EE066
:100880000FB6F894A89581BD0FBE91BDBC98C49ACF
:10089000BD98C59A10926E0010926D0088B38C7F3F
:1008A00088BB87B3836087BB80E49CE90197F1F73D
:1008B00087B38C7F87BB87DD7894A8958EDDFDCFCD
:1008C000FB01DC0102C005900D9241505040D8F769
:1008D0000895DC0101C06D9341505040E0F7089548
:0408E000F894FFCFBA
:0608E4005AD205000A00D3
:00000001FF
